{
  "contractName": "CoinFlipOracle",
  "abi": [
    {
      "constant": true,
      "inputs": [],
      "name": "result",
      "outputs": [
        {
          "name": "",
          "type": "string"
        }
      ],
      "payable": false,
      "stateMutability": "view",
      "type": "function"
    },
    {
      "constant": true,
      "inputs": [],
      "name": "oraclizeID",
      "outputs": [
        {
          "name": "",
          "type": "bytes32"
        }
      ],
      "payable": false,
      "stateMutability": "view",
      "type": "function"
    },
    {
      "inputs": [],
      "payable": false,
      "stateMutability": "nonpayable",
      "type": "constructor"
    },
    {
      "payable": true,
      "stateMutability": "payable",
      "type": "fallback"
    },
    {
      "anonymous": false,
      "inputs": [
        {
          "indexed": false,
          "name": "text",
          "type": "string"
        }
      ],
      "name": "Log",
      "type": "event"
    },
    {
      "constant": true,
      "inputs": [],
      "name": "fallBackCalled",
      "outputs": [
        {
          "name": "",
          "type": "string"
        }
      ],
      "payable": false,
      "stateMutability": "view",
      "type": "function"
    },
    {
      "constant": false,
      "inputs": [],
      "name": "flipCoin",
      "outputs": [],
      "payable": true,
      "stateMutability": "payable",
      "type": "function"
    },
    {
      "constant": false,
      "inputs": [
        {
          "name": "_oraclizeID",
          "type": "bytes32"
        },
        {
          "name": "_result",
          "type": "string"
        }
      ],
      "name": "__callback",
      "outputs": [],
      "payable": false,
      "stateMutability": "nonpayable",
      "type": "function"
    },
    {
      "constant": false,
      "inputs": [
        {
          "name": "myid",
          "type": "bytes32"
        },
        {
          "name": "result",
          "type": "string"
        },
        {
          "name": "proof",
          "type": "bytes"
        }
      ],
      "name": "__callback",
      "outputs": [],
      "payable": false,
      "stateMutability": "nonpayable",
      "type": "function"
    },
    {
      "constant": true,
      "inputs": [],
      "name": "getResult",
      "outputs": [
        {
          "name": "",
          "type": "string"
        }
      ],
      "payable": false,
      "stateMutability": "view",
      "type": "function"
    },
    {
      "constant": true,
      "inputs": [],
      "name": "getString",
      "outputs": [
        {
          "name": "",
          "type": "string"
        }
      ],
      "payable": false,
      "stateMutability": "view",
      "type": "function"
    },
    {
      "constant": false,
      "inputs": [],
      "name": "sendIntoContract",
      "outputs": [],
      "payable": true,
      "stateMutability": "payable",
      "type": "function"
    }
  ],
  "bytecode": "0x6060604052341561000f57600080fd5b7fcf34ef537ac33ee1ac626ca1587a0a7e8e51561e5514f8cb36afa1c5102b3bab6040518080602001828103825260108152602001807f436f6e747261637420637265617465640000000000000000000000000000000081525060200191505060405180910390a161166b806100866000396000f300606060405260043610610099576000357c0100000000000000000000000000000000000000000000000000000000900463ffffffff16806327dc297e146100a457806338bbfa501461010e57806365372147146101bb578063799ae2231461024957806389ea642f146102535780638d3698d3146102e1578063b5dda330146102eb578063d98645c514610379578063de292789146103aa575b6100a1610438565b50005b34156100af57600080fd5b61010c60048080356000191690602001909190803590602001908201803590602001908080601f0160208091040260200160405190810160405280939291908181526020018383808284378201915050505050509190505061047b565b005b341561011957600080fd5b6101b960048080356000191690602001909190803590602001908201803590602001908080601f0160208091040260200160405190810160405280939291908181526020018383808284378201915050505050509190803590602001908201803590602001908080601f01602080910402602001604051908101604052809392919081815260200183838082843782019150505050505091905050610573565b005b34156101c657600080fd5b6101ce610578565b6040518080602001828103825283818151815260200191508051906020019080838360005b8381101561020e5780820151818401526020810190506101f3565b50505050905090810190601f16801561023b5780820380516001836020036101000a031916815260200191505b509250505060405180910390f35b610251610616565b005b341561025e57600080fd5b610266610728565b6040518080602001828103825283818151815260200191508051906020019080838360005b838110156102a657808201518184015260208101905061028b565b50505050905090810190601f1680156102d35780820380516001836020036101000a031916815260200191505b509250505060405180910390f35b6102e961076b565b005b34156102f657600080fd5b6102fe610438565b6040518080602001828103825283818151815260200191508051906020019080838360005b8381101561033e578082015181840152602081019050610323565b50505050905090810190601f16801561036b5780820380516001836020036101000a031916815260200191505b509250505060405180910390f35b341561038457600080fd5b61038c6107ad565b60405180826000191660001916815260200191505060405180910390f35b34156103b557600080fd5b6103bd6107b3565b6040518080602001828103825283818151815260200191508051906020019080838360005b838110156103fd5780820151818401526020810190506103e2565b50505050905090810190601f16801561042a5780820380516001836020036101000a031916815260200191505b509250505060405180910390f35b610440611586565b6040805190810160405280601381526020017f66616c6c6261636b207761732063616c6c656400000000000000000000000000815250905090565b61048361085b565b73ffffffffffffffffffffffffffffffffffffffff163373ffffffffffffffffffffffffffffffffffffffff161415156104bc57600080fd5b7fcf34ef537ac33ee1ac626ca1587a0a7e8e51561e5514f8cb36afa1c5102b3bab816040518080602001828103825283818151815260200191508051906020019080838360005b8381101561051e578082015181840152602081019050610503565b50505050905090810190601f16801561054b5780820380516001836020036101000a031916815260200191505b509250505060405180910390a1806005908051906020019061056e92919061159a565b505050565b505050565b60058054600181600116156101000203166002900480601f01602080910402602001604051908101604052809291908181526020018280546001816001161561010002031660029004801561060e5780601f106105e35761010080835404028352916020019161060e565b820191906000526020600020905b8154815290600101906020018083116105f157829003601f168201915b505050505081565b7fcf34ef537ac33ee1ac626ca1587a0a7e8e51561e5514f8cb36afa1c5102b3bab60405180806020018281038252602d8152602001807f4f7261636c697a65207175657279207761732073656e742c2077616974696e6781526020017f20666f7220726573706f6e73650000000000000000000000000000000000000081525060400191505060405180910390a161071c6040805190810160405280600c81526020017f576f6c6672616d416c70686100000000000000000000000000000000000000008152506040805190810160405280600b81526020017f666c6970206120636f696e000000000000000000000000000000000000000000815250624c4b40610b71565b60068160001916905550565b610730611586565b6040805190810160405280600581526020017f68656c6c6f000000000000000000000000000000000000000000000000000000815250905090565b3073ffffffffffffffffffffffffffffffffffffffff166108fc349081150290604051600060405180830381858888f1935050505015156107ab57600080fd5b565b60065481565b6107bb611586565b60058054600181600116156101000203166002900480601f0160208091040260200160405190810160405280929190818152602001828054600181600116156101000203166002900480156108515780601f1061082657610100808354040283529160200191610851565b820191906000526020600020905b81548152906001019060200180831161083457829003601f168201915b5050505050905090565b6000806000809054906101000a900473ffffffffffffffffffffffffffffffffffffffff1673ffffffffffffffffffffffffffffffffffffffff1614806108cb575060006108c96000809054906101000a900473ffffffffffffffffffffffffffffffffffffffff166110c1565b145b156108dc576108da60006110cc565b505b6000809054906101000a900473ffffffffffffffffffffffffffffffffffffffff1673ffffffffffffffffffffffffffffffffffffffff166338cc48316000604051602001526040518163ffffffff167c0100000000000000000000000000000000000000000000000000000000028152600401602060405180830381600087803b151561096957600080fd5b6102c65a03f1151561097a57600080fd5b5050506040518051905073ffffffffffffffffffffffffffffffffffffffff16600160009054906101000a900473ffffffffffffffffffffffffffffffffffffffff1673ffffffffffffffffffffffffffffffffffffffff16141515610ac3576000809054906101000a900473ffffffffffffffffffffffffffffffffffffffff1673ffffffffffffffffffffffffffffffffffffffff166338cc48316000604051602001526040518163ffffffff167c0100000000000000000000000000000000000000000000000000000000028152600401602060405180830381600087803b1515610a6757600080fd5b6102c65a03f11515610a7857600080fd5b50505060405180519050600160006101000a81548173ffffffffffffffffffffffffffffffffffffffff021916908373ffffffffffffffffffffffffffffffffffffffff1602179055505b600160009054906101000a900473ffffffffffffffffffffffffffffffffffffffff1673ffffffffffffffffffffffffffffffffffffffff1663c281d19e6000604051602001526040518163ffffffff167c0100000000000000000000000000000000000000000000000000000000028152600401602060405180830381600087803b1515610b5157600080fd5b6102c65a03f11515610b6257600080fd5b50505060405180519050905090565b60008060008060009054906101000a900473ffffffffffffffffffffffffffffffffffffffff1673ffffffffffffffffffffffffffffffffffffffff161480610be357506000610be16000809054906101000a900473ffffffffffffffffffffffffffffffffffffffff166110c1565b145b15610bf457610bf260006110cc565b505b6000809054906101000a900473ffffffffffffffffffffffffffffffffffffffff1673ffffffffffffffffffffffffffffffffffffffff166338cc48316000604051602001526040518163ffffffff167c0100000000000000000000000000000000000000000000000000000000028152600401602060405180830381600087803b1515610c8157600080fd5b6102c65a03f11515610c9257600080fd5b5050506040518051905073ffffffffffffffffffffffffffffffffffffffff16600160009054906101000a900473ffffffffffffffffffffffffffffffffffffffff1673ffffffffffffffffffffffffffffffffffffffff16141515610ddb576000809054906101000a900473ffffffffffffffffffffffffffffffffffffffff1673ffffffffffffffffffffffffffffffffffffffff166338cc48316000604051602001526040518163ffffffff167c0100000000000000000000000000000000000000000000000000000000028152600401602060405180830381600087803b1515610d7f57600080fd5b6102c65a03f11515610d9057600080fd5b50505060405180519050600160006101000a81548173ffffffffffffffffffffffffffffffffffffffff021916908373ffffffffffffffffffffffffffffffffffffffff1602179055505b600160009054906101000a900473ffffffffffffffffffffffffffffffffffffffff1673ffffffffffffffffffffffffffffffffffffffff16632ef3accc86856000604051602001526040518363ffffffff167c01000000000000000000000000000000000000000000000000000000000281526004018080602001838152602001828103825284818151815260200191508051906020019080838360005b83811015610e95578082015181840152602081019050610e7a565b50505050905090810190601f168015610ec25780820380516001836020036101000a031916815260200191505b509350505050602060405180830381600087803b1515610ee157600080fd5b6102c65a03f11515610ef257600080fd5b505050604051805190509050823a02670de0b6b3a764000001811115610f1e57600060010291506110b9565b600160009054906101000a900473ffffffffffffffffffffffffffffffffffffffff1673ffffffffffffffffffffffffffffffffffffffff1663c51be90f8260008888886000604051602001526040518663ffffffff167c0100000000000000000000000000000000000000000000000000000000028152600401808581526020018060200180602001848152602001838103835286818151815260200191508051906020019080838360005b83811015610fe6578082015181840152602081019050610fcb565b50505050905090810190601f1680156110135780820380516001836020036101000a031916815260200191505b50838103825285818151815260200191508051906020019080838360005b8381101561104c578082015181840152602081019050611031565b50505050905090810190601f1680156110795780820380516001836020036101000a031916815260200191505b5096505050505050506020604051808303818588803b151561109a57600080fd5b6125ee5a03f115156110ab57600080fd5b505050506040518051905091505b509392505050565b6000813b9050919050565b60006110d66110dd565b9050919050565b6000806110fd731d3b2638a7cc9f2cb3d298a3da7a90b67e5506ed6110c1565b111561119e57731d3b2638a7cc9f2cb3d298a3da7a90b67e5506ed6000806101000a81548173ffffffffffffffffffffffffffffffffffffffff021916908373ffffffffffffffffffffffffffffffffffffffff1602179055506111956040805190810160405280600b81526020017f6574685f6d61696e6e657400000000000000000000000000000000000000000081525061156c565b60019050611569565b60006111bd73c03a2615d5efaf5f49f60b7bb6583eaec212fdf16110c1565b111561125e5773c03a2615d5efaf5f49f60b7bb6583eaec212fdf16000806101000a81548173ffffffffffffffffffffffffffffffffffffffff021916908373ffffffffffffffffffffffffffffffffffffffff1602179055506112556040805190810160405280600c81526020017f6574685f726f707374656e33000000000000000000000000000000000000000081525061156c565b60019050611569565b600061127d73b7a07bcf2ba2f2703b24c0691b5278999c59ac7e6110c1565b111561131e5773b7a07bcf2ba2f2703b24c0691b5278999c59ac7e6000806101000a81548173ffffffffffffffffffffffffffffffffffffffff021916908373ffffffffffffffffffffffffffffffffffffffff1602179055506113156040805190810160405280600981526020017f6574685f6b6f76616e000000000000000000000000000000000000000000000081525061156c565b60019050611569565b600061133d73146500cfd35b22e4a392fe0adc06de1a1368ed486110c1565b11156113de5773146500cfd35b22e4a392fe0adc06de1a1368ed486000806101000a81548173ffffffffffffffffffffffffffffffffffffffff021916908373ffffffffffffffffffffffffffffffffffffffff1602179055506113d56040805190810160405280600b81526020017f6574685f72696e6b65627900000000000000000000000000000000000000000081525061156c565b60019050611569565b60006113fd736f485c8bf6fc43ea212e93bbf8ce046c7f1cb4756110c1565b111561146057736f485c8bf6fc43ea212e93bbf8ce046c7f1cb4756000806101000a81548173ffffffffffffffffffffffffffffffffffffffff021916908373ffffffffffffffffffffffffffffffffffffffff16021790555060019050611569565b600061147f7320e12a1f859b3feae5fb2a0a32c18f5a65555bbf6110c1565b11156114e2577320e12a1f859b3feae5fb2a0a32c18f5a65555bbf6000806101000a81548173ffffffffffffffffffffffffffffffffffffffff021916908373ffffffffffffffffffffffffffffffffffffffff16021790555060019050611569565b60006115017351efaf4c8b3c9afbd5ab9f4bbc82784ab6ef8faa6110c1565b1115611564577351efaf4c8b3c9afbd5ab9f4bbc82784ab6ef8faa6000806101000a81548173ffffffffffffffffffffffffffffffffffffffff021916908373ffffffffffffffffffffffffffffffffffffffff16021790555060019050611569565b600090505b90565b806002908051906020019061158292919061159a565b5050565b602060405190810160405280600081525090565b828054600181600116156101000203166002900490600052602060002090601f016020900481019282601f106115db57805160ff1916838001178555611609565b82800160010185558215611609579182015b828111156116085782518255916020019190600101906115ed565b5b509050611616919061161a565b5090565b61163c91905b80821115611638576000816000905550600101611620565b5090565b905600a165627a7a72305820a107a50a29847ae47a810e2f5dcdc9ffcb9d8d8d2acbd452567e0e68ad019ac50029",
  "source": "pragma solidity ^0.4.18;\nimport './usingOraclize.sol';\n\ncontract CoinFlipOracle is usingOraclize {\n\n  string public result;\n  bytes32 public oraclizeID;\n\n  event Log(string text);\n\n  function CoinFlipOracle() {\n    Log(\"Contract created\");\n  }\n\n  function () payable {\n        fallBackCalled();\n    }\n    \n  function fallBackCalled() constant returns (string) {\n      return \"fallback was called\";\n  }\n\n  // have to pay oraclize service so it's payable\n  function flipCoin() payable {\n    Log(\"Oraclize query was sent, waiting for response\");\n    oraclizeID = oraclize_query(\"WolframAlpha\", \"flip a coin\", 5000000);\n  }\n\n  function __callback(bytes32 _oraclizeID, string _result) {\n    require(msg.sender == oraclize_cbAddress());\n    Log(_result);\n    result = _result;\n  }\n\n  function getResult() view returns(string) {\n    return result;\n  }\n\n  function getString() view returns(string) {\n    return \"hello\";\n  }\n\n  function sendIntoContract() payable {\n    this.transfer(msg.value);\n  }\n}\n\n// contract BoosterKitty {\n\n//   function getBooster() public payable {\n//     require(kitties.length >= N);\n//     require(msg.value >= PRICE);\n\n//     bytes32 queryId = oraclize_query(\"WolframAlpha\", \"random number between 0 and 4294967294\", 5000000);\n//     queries[queryId] = msg.sender;\n\n//     if (msg.value > PRICE) {\n//       uint256 priceExcess = msg.value - PRICE;\n//       msg.sender.transfer(priceExcess);\n//     }\n//     GenerateBoosterStart(queryId, msg.sender);\n//   }\n\n//   function __callback(bytes32 _queryId, string _result)\n//   {\n//     require(kitties.length >= N);\n//     if (msg.sender != oraclize_cbAddress()) throw;\n//     uint maxRange = kitties.length;\n//     uint randomNumberStart = uint(sha3((_result ))) % maxRange;\n//     kittiesToSend.length = 0;\n//     contracts.length = 0;\n//     for (uint i = 0; i < N; i++) {\n//       uint randomNumber = (randomNumberStart + i) % maxRange;\n//       kittiesToSend.push(kitties[randomNumber]);\n//       contracts.push(tokenContract);\n//       ERC721(tokenContract).approve(setContract, kitties[randomNumber]);\n//       kitties[randomNumber] = kitties[kitties.length - 1 - i];\n//     }\n//     kitties.length -= N;\n//     uint256 id = ERC721Set(setContract).mint(kittiesToSend, contracts);\n//     ERC721(setContract).transfer(queries[_queryId], id);\n//     BoosterTransferred(_queryId, queries[_queryId], id);\n//   }\n// }",
  "sourcePath": "/Users/jonathanwang/Desktop/React Apps/QRReact/qrcode/src/contracts/CoinFlipOracle.sol",
  "compiler": {
    "name": "solc",
    "version": "0.4.19+commit.c4cbbb05.Emscripten.clang"
  },
  "schemaVersion": "1.0.1",
  "updatedAt": "2018-03-01T03:01:24.492Z"
}