{
  "contractName": "CoinFlipOracle",
  "abi": [
    {
      "constant": true,
      "inputs": [],
      "name": "result",
      "outputs": [
        {
          "name": "",
          "type": "string"
        }
      ],
      "payable": false,
      "stateMutability": "view",
      "type": "function"
    },
    {
      "constant": true,
      "inputs": [],
      "name": "oraclizeID",
      "outputs": [
        {
          "name": "",
          "type": "bytes32"
        }
      ],
      "payable": false,
      "stateMutability": "view",
      "type": "function"
    },
    {
      "inputs": [],
      "payable": false,
      "stateMutability": "nonpayable",
      "type": "constructor"
    },
    {
      "payable": true,
      "stateMutability": "payable",
      "type": "fallback"
    },
    {
      "anonymous": false,
      "inputs": [
        {
          "indexed": false,
          "name": "text",
          "type": "string"
        }
      ],
      "name": "Log",
      "type": "event"
    },
    {
      "constant": true,
      "inputs": [],
      "name": "fallBackCalled",
      "outputs": [
        {
          "name": "",
          "type": "string"
        }
      ],
      "payable": false,
      "stateMutability": "view",
      "type": "function"
    },
    {
      "constant": false,
      "inputs": [],
      "name": "flipCoin",
      "outputs": [],
      "payable": true,
      "stateMutability": "payable",
      "type": "function"
    },
    {
      "constant": false,
      "inputs": [
        {
          "name": "_oraclizeID",
          "type": "bytes32"
        },
        {
          "name": "_result",
          "type": "string"
        }
      ],
      "name": "__callback",
      "outputs": [],
      "payable": false,
      "stateMutability": "nonpayable",
      "type": "function"
    },
    {
      "constant": false,
      "inputs": [
        {
          "name": "myid",
          "type": "bytes32"
        },
        {
          "name": "result",
          "type": "string"
        },
        {
          "name": "proof",
          "type": "bytes"
        }
      ],
      "name": "__callback",
      "outputs": [],
      "payable": false,
      "stateMutability": "nonpayable",
      "type": "function"
    },
    {
      "constant": false,
      "inputs": [],
      "name": "flipCoin2",
      "outputs": [],
      "payable": true,
      "stateMutability": "payable",
      "type": "function"
    },
    {
      "constant": true,
      "inputs": [],
      "name": "getResult",
      "outputs": [
        {
          "name": "",
          "type": "string"
        }
      ],
      "payable": false,
      "stateMutability": "view",
      "type": "function"
    },
    {
      "constant": true,
      "inputs": [],
      "name": "getString",
      "outputs": [
        {
          "name": "",
          "type": "string"
        }
      ],
      "payable": false,
      "stateMutability": "view",
      "type": "function"
    },
    {
      "constant": false,
      "inputs": [],
      "name": "sendIntoContract",
      "outputs": [],
      "payable": true,
      "stateMutability": "payable",
      "type": "function"
    },
    {
      "constant": false,
      "inputs": [],
      "name": "printLog",
      "outputs": [],
      "payable": false,
      "stateMutability": "nonpayable",
      "type": "function"
    }
  ],
  "bytecode": "0x6060604052341561000f57600080fd5b7fcf34ef537ac33ee1ac626ca1587a0a7e8e51561e5514f8cb36afa1c5102b3bab6040518080602001828103825260108152602001807f436f6e747261637420637265617465640000000000000000000000000000000081525060200191505060405180910390a1611806806100866000396000f3006060604052600436106100af576000357c0100000000000000000000000000000000000000000000000000000000900463ffffffff16806327dc297e146100ba57806338bbfa501461012457806365372147146101d1578063658268f81461025f578063799ae2231461027457806389ea642f1461027e5780638d3698d31461030c578063b5dda33014610316578063d98645c5146103a4578063da9a8d00146103d5578063de292789146103df575b6100b761046d565b50005b34156100c557600080fd5b61012260048080356000191690602001909190803590602001908201803590602001908080601f016020809104026020016040519081016040528093929190818152602001838380828437820191505050505050919050506104b0565b005b341561012f57600080fd5b6101cf60048080356000191690602001909190803590602001908201803590602001908080601f0160208091040260200160405190810160405280939291908181526020018383808284378201915050505050509190803590602001908201803590602001908080601f016020809104026020016040519081016040528093929190818152602001838380828437820191505050505050919050506105a8565b005b34156101dc57600080fd5b6101e46105ad565b6040518080602001828103825283818151815260200191508051906020019080838360005b83811015610224578082015181840152602081019050610209565b50505050905090810190601f1680156102515780820380516001836020036101000a031916815260200191505b509250505060405180910390f35b341561026a57600080fd5b61027261064b565b005b61027c6106b5565b005b341561028957600080fd5b6102916107c3565b6040518080602001828103825283818151815260200191508051906020019080838360005b838110156102d15780820151818401526020810190506102b6565b50505050905090810190601f1680156102fe5780820380516001836020036101000a031916815260200191505b509250505060405180910390f35b610314610806565b005b341561032157600080fd5b61032961046d565b6040518080602001828103825283818151815260200191508051906020019080838360005b8381101561036957808201518184015260208101905061034e565b50505050905090810190601f1680156103965780820380516001836020036101000a031916815260200191505b509250505060405180910390f35b34156103af57600080fd5b6103b7610848565b60405180826000191660001916815260200191505060405180910390f35b6103dd61084e565b005b34156103ea57600080fd5b6103f261095c565b6040518080602001828103825283818151815260200191508051906020019080838360005b83811015610432578082015181840152602081019050610417565b50505050905090810190601f16801561045f5780820380516001836020036101000a031916815260200191505b509250505060405180910390f35b610475611721565b6040805190810160405280601381526020017f66616c6c6261636b207761732063616c6c656400000000000000000000000000815250905090565b6104b8610a04565b73ffffffffffffffffffffffffffffffffffffffff163373ffffffffffffffffffffffffffffffffffffffff161415156104f157600080fd5b7fcf34ef537ac33ee1ac626ca1587a0a7e8e51561e5514f8cb36afa1c5102b3bab816040518080602001828103825283818151815260200191508051906020019080838360005b83811015610553578082015181840152602081019050610538565b50505050905090810190601f1680156105805780820380516001836020036101000a031916815260200191505b509250505060405180910390a180600590805190602001906105a3929190611735565b505050565b505050565b60058054600181600116156101000203166002900480601f0160208091040260200160405190810160405280929190818152602001828054600181600116156101000203166002900480156106435780601f1061061857610100808354040283529160200191610643565b820191906000526020600020905b81548152906001019060200180831161062657829003601f168201915b505050505081565b7fcf34ef537ac33ee1ac626ca1587a0a7e8e51561e5514f8cb36afa1c5102b3bab60405180806020018281038252600f8152602001807f74686973207368697420776f726b73000000000000000000000000000000000081525060200191505060405180910390a1565b7fcf34ef537ac33ee1ac626ca1587a0a7e8e51561e5514f8cb36afa1c5102b3bab60405180806020018281038252602d8152602001807f4f7261636c697a65207175657279207761732073656e742c2077616974696e6781526020017f20666f7220726573706f6e73650000000000000000000000000000000000000081525060400191505060405180910390a16107b76040805190810160405280600c81526020017f576f6c6672616d416c70686100000000000000000000000000000000000000008152506040805190810160405280600b81526020017f666c6970206120636f696e000000000000000000000000000000000000000000815250610d1a565b60068160001916905550565b6107cb611721565b6040805190810160405280600581526020017f68656c6c6f000000000000000000000000000000000000000000000000000000815250905090565b3073ffffffffffffffffffffffffffffffffffffffff166108fc349081150290604051600060405180830381858888f19350505050151561084657600080fd5b565b60065481565b7fcf34ef537ac33ee1ac626ca1587a0a7e8e51561e5514f8cb36afa1c5102b3bab60405180806020018281038252602d8152602001807f4f7261636c697a65207175657279207761732073656e742c2077616974696e6781526020017f20666f7220726573706f6e73650000000000000000000000000000000000000081525060400191505060405180910390a16109506040805190810160405280600c81526020017f576f6c6672616d416c70686100000000000000000000000000000000000000008152506040805190810160405280600b81526020017f666c6970206120636f696e000000000000000000000000000000000000000000815250610d1a565b60068160001916905550565b610964611721565b60058054600181600116156101000203166002900480601f0160208091040260200160405190810160405280929190818152602001828054600181600116156101000203166002900480156109fa5780601f106109cf576101008083540402835291602001916109fa565b820191906000526020600020905b8154815290600101906020018083116109dd57829003601f168201915b5050505050905090565b6000806000809054906101000a900473ffffffffffffffffffffffffffffffffffffffff1673ffffffffffffffffffffffffffffffffffffffff161480610a7457506000610a726000809054906101000a900473ffffffffffffffffffffffffffffffffffffffff1661125c565b145b15610a8557610a836000611267565b505b6000809054906101000a900473ffffffffffffffffffffffffffffffffffffffff1673ffffffffffffffffffffffffffffffffffffffff166338cc48316000604051602001526040518163ffffffff167c0100000000000000000000000000000000000000000000000000000000028152600401602060405180830381600087803b1515610b1257600080fd5b6102c65a03f11515610b2357600080fd5b5050506040518051905073ffffffffffffffffffffffffffffffffffffffff16600160009054906101000a900473ffffffffffffffffffffffffffffffffffffffff1673ffffffffffffffffffffffffffffffffffffffff16141515610c6c576000809054906101000a900473ffffffffffffffffffffffffffffffffffffffff1673ffffffffffffffffffffffffffffffffffffffff166338cc48316000604051602001526040518163ffffffff167c0100000000000000000000000000000000000000000000000000000000028152600401602060405180830381600087803b1515610c1057600080fd5b6102c65a03f11515610c2157600080fd5b50505060405180519050600160006101000a81548173ffffffffffffffffffffffffffffffffffffffff021916908373ffffffffffffffffffffffffffffffffffffffff1602179055505b600160009054906101000a900473ffffffffffffffffffffffffffffffffffffffff1673ffffffffffffffffffffffffffffffffffffffff1663c281d19e6000604051602001526040518163ffffffff167c0100000000000000000000000000000000000000000000000000000000028152600401602060405180830381600087803b1515610cfa57600080fd5b6102c65a03f11515610d0b57600080fd5b50505060405180519050905090565b60008060008060009054906101000a900473ffffffffffffffffffffffffffffffffffffffff1673ffffffffffffffffffffffffffffffffffffffff161480610d8c57506000610d8a6000809054906101000a900473ffffffffffffffffffffffffffffffffffffffff1661125c565b145b15610d9d57610d9b6000611267565b505b6000809054906101000a900473ffffffffffffffffffffffffffffffffffffffff1673ffffffffffffffffffffffffffffffffffffffff166338cc48316000604051602001526040518163ffffffff167c0100000000000000000000000000000000000000000000000000000000028152600401602060405180830381600087803b1515610e2a57600080fd5b6102c65a03f11515610e3b57600080fd5b5050506040518051905073ffffffffffffffffffffffffffffffffffffffff16600160009054906101000a900473ffffffffffffffffffffffffffffffffffffffff1673ffffffffffffffffffffffffffffffffffffffff16141515610f84576000809054906101000a900473ffffffffffffffffffffffffffffffffffffffff1673ffffffffffffffffffffffffffffffffffffffff166338cc48316000604051602001526040518163ffffffff167c0100000000000000000000000000000000000000000000000000000000028152600401602060405180830381600087803b1515610f2857600080fd5b6102c65a03f11515610f3957600080fd5b50505060405180519050600160006101000a81548173ffffffffffffffffffffffffffffffffffffffff021916908373ffffffffffffffffffffffffffffffffffffffff1602179055505b600160009054906101000a900473ffffffffffffffffffffffffffffffffffffffff1673ffffffffffffffffffffffffffffffffffffffff1663524f3889856000604051602001526040518263ffffffff167c01000000000000000000000000000000000000000000000000000000000281526004018080602001828103825283818151815260200191508051906020019080838360005b8381101561103757808201518184015260208101905061101c565b50505050905090810190601f1680156110645780820380516001836020036101000a031916815260200191505b5092505050602060405180830381600087803b151561108257600080fd5b6102c65a03f1151561109357600080fd5b50505060405180519050905062030d403a02670de0b6b3a7640000018111156110c25760006001029150611255565b600160009054906101000a900473ffffffffffffffffffffffffffffffffffffffff1673ffffffffffffffffffffffffffffffffffffffff1663adf59f9982600087876000604051602001526040518563ffffffff167c0100000000000000000000000000000000000000000000000000000000028152600401808481526020018060200180602001838103835285818151815260200191508051906020019080838360005b83811015611183578082015181840152602081019050611168565b50505050905090810190601f1680156111b05780820380516001836020036101000a031916815260200191505b50838103825284818151815260200191508051906020019080838360005b838110156111e95780820151818401526020810190506111ce565b50505050905090810190601f1680156112165780820380516001836020036101000a031916815260200191505b50955050505050506020604051808303818588803b151561123657600080fd5b6125ee5a03f1151561124757600080fd5b505050506040518051905091505b5092915050565b6000813b9050919050565b6000611271611278565b9050919050565b600080611298731d3b2638a7cc9f2cb3d298a3da7a90b67e5506ed61125c565b111561133957731d3b2638a7cc9f2cb3d298a3da7a90b67e5506ed6000806101000a81548173ffffffffffffffffffffffffffffffffffffffff021916908373ffffffffffffffffffffffffffffffffffffffff1602179055506113306040805190810160405280600b81526020017f6574685f6d61696e6e6574000000000000000000000000000000000000000000815250611707565b60019050611704565b600061135873c03a2615d5efaf5f49f60b7bb6583eaec212fdf161125c565b11156113f95773c03a2615d5efaf5f49f60b7bb6583eaec212fdf16000806101000a81548173ffffffffffffffffffffffffffffffffffffffff021916908373ffffffffffffffffffffffffffffffffffffffff1602179055506113f06040805190810160405280600c81526020017f6574685f726f707374656e330000000000000000000000000000000000000000815250611707565b60019050611704565b600061141873b7a07bcf2ba2f2703b24c0691b5278999c59ac7e61125c565b11156114b95773b7a07bcf2ba2f2703b24c0691b5278999c59ac7e6000806101000a81548173ffffffffffffffffffffffffffffffffffffffff021916908373ffffffffffffffffffffffffffffffffffffffff1602179055506114b06040805190810160405280600981526020017f6574685f6b6f76616e0000000000000000000000000000000000000000000000815250611707565b60019050611704565b60006114d873146500cfd35b22e4a392fe0adc06de1a1368ed4861125c565b11156115795773146500cfd35b22e4a392fe0adc06de1a1368ed486000806101000a81548173ffffffffffffffffffffffffffffffffffffffff021916908373ffffffffffffffffffffffffffffffffffffffff1602179055506115706040805190810160405280600b81526020017f6574685f72696e6b656279000000000000000000000000000000000000000000815250611707565b60019050611704565b6000611598736f485c8bf6fc43ea212e93bbf8ce046c7f1cb47561125c565b11156115fb57736f485c8bf6fc43ea212e93bbf8ce046c7f1cb4756000806101000a81548173ffffffffffffffffffffffffffffffffffffffff021916908373ffffffffffffffffffffffffffffffffffffffff16021790555060019050611704565b600061161a7320e12a1f859b3feae5fb2a0a32c18f5a65555bbf61125c565b111561167d577320e12a1f859b3feae5fb2a0a32c18f5a65555bbf6000806101000a81548173ffffffffffffffffffffffffffffffffffffffff021916908373ffffffffffffffffffffffffffffffffffffffff16021790555060019050611704565b600061169c7351efaf4c8b3c9afbd5ab9f4bbc82784ab6ef8faa61125c565b11156116ff577351efaf4c8b3c9afbd5ab9f4bbc82784ab6ef8faa6000806101000a81548173ffffffffffffffffffffffffffffffffffffffff021916908373ffffffffffffffffffffffffffffffffffffffff16021790555060019050611704565b600090505b90565b806002908051906020019061171d929190611735565b5050565b602060405190810160405280600081525090565b828054600181600116156101000203166002900490600052602060002090601f016020900481019282601f1061177657805160ff19168380011785556117a4565b828001600101855582156117a4579182015b828111156117a3578251825591602001919060010190611788565b5b5090506117b191906117b5565b5090565b6117d791905b808211156117d35760008160009055506001016117bb565b5090565b905600a165627a7a72305820d03276a48b81852671592fe45f8b3f2d89f58163c3808a014bda075def5667d10029",
  "source": "pragma solidity ^0.4.18;\nimport './usingOraclize.sol';\n\ncontract CoinFlipOracle is usingOraclize {\n\n  string public result;\n  bytes32 public oraclizeID;\n\n  event Log(string text);\n\n  function CoinFlipOracle() {\n    Log(\"Contract created\");\n  }\n\n  function () payable {\n        fallBackCalled();\n    }\n    \n  function fallBackCalled() constant returns (string) {\n      return \"fallback was called\";\n  }\n\n  // have to pay oraclize service so it's payable\n  function flipCoin() payable {\n    Log(\"Oraclize query was sent, waiting for response\");\n    oraclizeID = oraclize_query(\"WolframAlpha\", \"flip a coin\");\n  }\n\n  function __callback(bytes32 _oraclizeID, string _result) {\n    require(msg.sender == oraclize_cbAddress());\n    Log(_result);\n    result = _result;\n  }\n\n  function flipCoin2() payable {\n    Log(\"Oraclize query was sent, waiting for response\");\n    oraclizeID = oraclize_query(\"WolframAlpha\", \"flip a coin\");\n  }\n\n  function getResult() constant returns(string) {\n    return result;\n  }\n\n  function getString() view returns(string) {\n    return \"hello\";\n  }\n\n  function sendIntoContract() payable {\n    this.transfer(msg.value);\n  }\n\n  function printLog() {\n    Log(\"this shit works\");\n  }\n}\n\n// contract BoosterKitty {\n\n//   function getBooster() public payable {\n//     require(kitties.length >= N);\n//     require(msg.value >= PRICE);\n\n//     bytes32 queryId = oraclize_query(\"WolframAlpha\", \"random number between 0 and 4294967294\", 5000000);\n//     queries[queryId] = msg.sender;\n\n//     if (msg.value > PRICE) {\n//       uint256 priceExcess = msg.value - PRICE;\n//       msg.sender.transfer(priceExcess);\n//     }\n//     GenerateBoosterStart(queryId, msg.sender);\n//   }\n\n//   function __callback(bytes32 _queryId, string _result)\n//   {\n//     require(kitties.length >= N);\n//     if (msg.sender != oraclize_cbAddress()) throw;\n//     uint maxRange = kitties.length;\n//     uint randomNumberStart = uint(sha3((_result ))) % maxRange;\n//     kittiesToSend.length = 0;\n//     contracts.length = 0;\n//     for (uint i = 0; i < N; i++) {\n//       uint randomNumber = (randomNumberStart + i) % maxRange;\n//       kittiesToSend.push(kitties[randomNumber]);\n//       contracts.push(tokenContract);\n//       ERC721(tokenContract).approve(setContract, kitties[randomNumber]);\n//       kitties[randomNumber] = kitties[kitties.length - 1 - i];\n//     }\n//     kitties.length -= N;\n//     uint256 id = ERC721Set(setContract).mint(kittiesToSend, contracts);\n//     ERC721(setContract).transfer(queries[_queryId], id);\n//     BoosterTransferred(_queryId, queries[_queryId], id);\n//   }\n// }",
  "sourcePath": "/Users/jonathanwang/Desktop/React Apps/QRReact/qrcode/src/contracts/CoinFlipOracle.sol",
  "compiler": {
    "name": "solc",
    "version": "0.4.19+commit.c4cbbb05.Emscripten.clang"
  },
  "schemaVersion": "1.0.1",
  "updatedAt": "2018-03-02T21:52:30.528Z"
}